{
  "contractName": "BridgeAvax",
  "abi": [
    {
      "inputs": [
        {
          "internalType": "address",
          "name": "_wstackAddress",
          "type": "address"
        },
        {
          "internalType": "uint256",
          "name": "_minimumBurn",
          "type": "uint256"
        }
      ],
      "stateMutability": "nonpayable",
      "type": "constructor"
    },
    {
      "anonymous": false,
      "inputs": [
        {
          "indexed": true,
          "internalType": "address",
          "name": "previousOwner",
          "type": "address"
        },
        {
          "indexed": true,
          "internalType": "address",
          "name": "newOwner",
          "type": "address"
        }
      ],
      "name": "OwnershipTransferred",
      "type": "event"
    },
    {
      "anonymous": false,
      "inputs": [
        {
          "indexed": false,
          "internalType": "address",
          "name": "from",
          "type": "address"
        },
        {
          "indexed": false,
          "internalType": "address",
          "name": "to",
          "type": "address"
        },
        {
          "indexed": false,
          "internalType": "uint256",
          "name": "amount",
          "type": "uint256"
        },
        {
          "indexed": false,
          "internalType": "uint256",
          "name": "date",
          "type": "uint256"
        },
        {
          "indexed": false,
          "internalType": "uint256",
          "name": "nonce",
          "type": "uint256"
        },
        {
          "indexed": true,
          "internalType": "enum BridgeAvax.Step",
          "name": "step",
          "type": "uint8"
        }
      ],
      "name": "Transfer",
      "type": "event"
    },
    {
      "inputs": [],
      "name": "minimumBurn",
      "outputs": [
        {
          "internalType": "uint256",
          "name": "",
          "type": "uint256"
        }
      ],
      "stateMutability": "view",
      "type": "function",
      "constant": true
    },
    {
      "inputs": [],
      "name": "nonce",
      "outputs": [
        {
          "internalType": "uint256",
          "name": "",
          "type": "uint256"
        }
      ],
      "stateMutability": "view",
      "type": "function",
      "constant": true
    },
    {
      "inputs": [],
      "name": "owner",
      "outputs": [
        {
          "internalType": "address",
          "name": "",
          "type": "address"
        }
      ],
      "stateMutability": "view",
      "type": "function",
      "constant": true
    },
    {
      "inputs": [],
      "name": "paused",
      "outputs": [
        {
          "internalType": "bool",
          "name": "",
          "type": "bool"
        }
      ],
      "stateMutability": "view",
      "type": "function",
      "constant": true
    },
    {
      "inputs": [
        {
          "internalType": "uint256",
          "name": "",
          "type": "uint256"
        }
      ],
      "name": "processedNonces",
      "outputs": [
        {
          "internalType": "bool",
          "name": "",
          "type": "bool"
        }
      ],
      "stateMutability": "view",
      "type": "function",
      "constant": true
    },
    {
      "inputs": [],
      "name": "renounceOwnership",
      "outputs": [],
      "stateMutability": "nonpayable",
      "type": "function"
    },
    {
      "inputs": [
        {
          "internalType": "address",
          "name": "newOwner",
          "type": "address"
        }
      ],
      "name": "transferOwnership",
      "outputs": [],
      "stateMutability": "nonpayable",
      "type": "function"
    },
    {
      "inputs": [],
      "name": "wSTACK",
      "outputs": [
        {
          "internalType": "contract Istack",
          "name": "",
          "type": "address"
        }
      ],
      "stateMutability": "view",
      "type": "function",
      "constant": true
    },
    {
      "inputs": [
        {
          "internalType": "uint256",
          "name": "amount",
          "type": "uint256"
        }
      ],
      "name": "burn",
      "outputs": [],
      "stateMutability": "nonpayable",
      "type": "function"
    },
    {
      "inputs": [
        {
          "internalType": "address",
          "name": "to",
          "type": "address"
        },
        {
          "internalType": "uint256",
          "name": "amount",
          "type": "uint256"
        },
        {
          "internalType": "uint256",
          "name": "otherChainNonce",
          "type": "uint256"
        }
      ],
      "name": "mint",
      "outputs": [],
      "stateMutability": "nonpayable",
      "type": "function"
    },
    {
      "inputs": [
        {
          "internalType": "bool",
          "name": "_paused",
          "type": "bool"
        }
      ],
      "name": "setPause",
      "outputs": [],
      "stateMutability": "nonpayable",
      "type": "function"
    },
    {
      "inputs": [
        {
          "internalType": "uint256",
          "name": "_minimumBurn",
          "type": "uint256"
        }
      ],
      "name": "setMinimumBurn",
      "outputs": [],
      "stateMutability": "nonpayable",
      "type": "function"
    },
    {
      "inputs": [],
      "name": "resetBridgeEpoch",
      "outputs": [],
      "stateMutability": "nonpayable",
      "type": "function"
    }
  ],
  "bytecode": "0x60806040526000600160006101000a81548173ffffffffffffffffffffffffffffffffffffffff021916908373ffffffffffffffffffffffffffffffffffffffff1602179055503480156200005357600080fd5b50604051620015c0380380620015c08339818101604052810190620000799190620001fe565b620000996200008d6200010460201b60201c565b6200010c60201b60201c565b81600260006101000a81548173ffffffffffffffffffffffffffffffffffffffff021916908373ffffffffffffffffffffffffffffffffffffffff160217905550806004819055506001600560006101000a81548160ff0219169083151502179055505050620002b1565b600033905090565b60008060009054906101000a900473ffffffffffffffffffffffffffffffffffffffff169050816000806101000a81548173ffffffffffffffffffffffffffffffffffffffff021916908373ffffffffffffffffffffffffffffffffffffffff1602179055508173ffffffffffffffffffffffffffffffffffffffff168173ffffffffffffffffffffffffffffffffffffffff167f8be0079c531659141344cd1fd0a4f28419497f9722a3daafe3b4186f6b6457e060405160405180910390a35050565b600081519050620001e1816200027d565b92915050565b600081519050620001f88162000297565b92915050565b600080604083850312156200021257600080fd5b60006200022285828601620001d0565b92505060206200023585828601620001e7565b9150509250929050565b60006200024c8262000253565b9050919050565b600073ffffffffffffffffffffffffffffffffffffffff82169050919050565b6000819050919050565b62000288816200023f565b81146200029457600080fd5b50565b620002a28162000273565b8114620002ae57600080fd5b50565b6112ff80620002c16000396000f3fe608060405234801561001057600080fd5b50600436106100cf5760003560e01c8063715018a61161008c57806391dae5191161006657806391dae519146101b4578063affed0e0146101e4578063bedb86fb14610202578063f2fde38b1461021e576100cf565b8063715018a61461017057806382d002d71461017a5780638da5cb5b14610196576100cf565b8063156e29f6146100d45780632554a4a4146100f057806342966c681461010e57806347d2612d1461012a5780635c975abb146101485780636f1bd09214610166575b600080fd5b6100ee60048036038101906100e99190610d3e565b61023a565b005b6100f8610455565b6040516101059190611174565b60405180910390f35b61012860048036038101906101239190610db6565b61045b565b005b610132610785565b60405161013f9190611099565b60405180910390f35b6101506107ab565b60405161015d919061107e565b60405180910390f35b61016e6107be565b005b61017861091c565b005b610194600480360381019061018f9190610db6565b6109a4565b005b61019e610a2a565b6040516101ab9190610fe7565b60405180910390f35b6101ce60048036038101906101c99190610db6565b610a53565b6040516101db919061107e565b60405180910390f35b6101ec610a73565b6040516101f99190611174565b60405180910390f35b61021c60048036038101906102179190610d8d565b610a79565b005b61023860048036038101906102339190610d15565b610b12565b005b610242610c0a565b73ffffffffffffffffffffffffffffffffffffffff16610260610a2a565b73ffffffffffffffffffffffffffffffffffffffff16146102b6576040517f08c379a00000000000000000000000000000000000000000000000000000000081526004016102ad90611134565b60405180910390fd5b600015156006600083815260200190815260200160002060009054906101000a900460ff1615151461031d576040517f08c379a000000000000000000000000000000000000000000000000000000000815260040161031490611114565b60405180910390fd5b60016006600083815260200190815260200160002060006101000a81548160ff021916908315150217905550600260009054906101000a900473ffffffffffffffffffffffffffffffffffffffff1673ffffffffffffffffffffffffffffffffffffffff166340c10f1984846040518363ffffffff1660e01b81526004016103a6929190611055565b600060405180830381600087803b1580156103c057600080fd5b505af11580156103d4573d6000803e3d6000fd5b50505050600180811115610411577f4e487b7100000000000000000000000000000000000000000000000000000000600052602160045260246000fd5b7f27757542a5e1b9e8cef80f584e094d4eb63b9802f355c61b3640b71b618d5c8e3385854286604051610448959493929190611002565b60405180910390a2505050565b60045481565b60001515600760003373ffffffffffffffffffffffffffffffffffffffff1673ffffffffffffffffffffffffffffffffffffffff16815260200190815260200160002060009054906101000a900460ff161515146104ee576040517f08c379a00000000000000000000000000000000000000000000000000000000081526004016104e590611154565b60405180910390fd5b600560009054906101000a900460ff161561053e576040517f08c379a0000000000000000000000000000000000000000000000000000000008152600401610535906110f4565b60405180910390fd5b600454811015610583576040517f08c379a000000000000000000000000000000000000000000000000000000000815260040161057a906110d4565b60405180910390fd5b6001600760003373ffffffffffffffffffffffffffffffffffffffff1673ffffffffffffffffffffffffffffffffffffffff16815260200190815260200160002060006101000a81548160ff0219169083151502179055506008339080600181540180825580915050600190039060005260206000200160009091909190916101000a81548173ffffffffffffffffffffffffffffffffffffffff021916908373ffffffffffffffffffffffffffffffffffffffff160217905550600260009054906101000a900473ffffffffffffffffffffffffffffffffffffffff1673ffffffffffffffffffffffffffffffffffffffff16639dc29fac33836040518363ffffffff1660e01b815260040161069b929190611055565b600060405180830381600087803b1580156106b557600080fd5b505af11580156106c9573d6000803e3d6000fd5b5050505060006001811115610707577f4e487b7100000000000000000000000000000000000000000000000000000000600052602160045260246000fd5b7f27757542a5e1b9e8cef80f584e094d4eb63b9802f355c61b3640b71b618d5c8e33600160009054906101000a900473ffffffffffffffffffffffffffffffffffffffff168442600354604051610762959493929190611002565b60405180910390a26003600081548092919061077d9061120c565b919050555050565b600260009054906101000a900473ffffffffffffffffffffffffffffffffffffffff1681565b600560009054906101000a900460ff1681565b6107c6610c0a565b73ffffffffffffffffffffffffffffffffffffffff166107e4610a2a565b73ffffffffffffffffffffffffffffffffffffffff161461083a576040517f08c379a000000000000000000000000000000000000000000000000000000000815260040161083190611134565b60405180910390fd5b60005b600880549050811015610919576000600760006008848154811061088a577f4e487b7100000000000000000000000000000000000000000000000000000000600052603260045260246000fd5b9060005260206000200160009054906101000a900473ffffffffffffffffffffffffffffffffffffffff1673ffffffffffffffffffffffffffffffffffffffff1673ffffffffffffffffffffffffffffffffffffffff16815260200190815260200160002060006101000a81548160ff02191690831515021790555080806109119061120c565b91505061083d565b50565b610924610c0a565b73ffffffffffffffffffffffffffffffffffffffff16610942610a2a565b73ffffffffffffffffffffffffffffffffffffffff1614610998576040517f08c379a000000000000000000000000000000000000000000000000000000000815260040161098f90611134565b60405180910390fd5b6109a26000610c12565b565b6109ac610c0a565b73ffffffffffffffffffffffffffffffffffffffff166109ca610a2a565b73ffffffffffffffffffffffffffffffffffffffff1614610a20576040517f08c379a0000000000000000000000000000000000000000000000000000000008152600401610a1790611134565b60405180910390fd5b8060048190555050565b60008060009054906101000a900473ffffffffffffffffffffffffffffffffffffffff16905090565b60066020528060005260406000206000915054906101000a900460ff1681565b60035481565b610a81610c0a565b73ffffffffffffffffffffffffffffffffffffffff16610a9f610a2a565b73ffffffffffffffffffffffffffffffffffffffff1614610af5576040517f08c379a0000000000000000000000000000000000000000000000000000000008152600401610aec90611134565b60405180910390fd5b80600560006101000a81548160ff02191690831515021790555050565b610b1a610c0a565b73ffffffffffffffffffffffffffffffffffffffff16610b38610a2a565b73ffffffffffffffffffffffffffffffffffffffff1614610b8e576040517f08c379a0000000000000000000000000000000000000000000000000000000008152600401610b8590611134565b60405180910390fd5b600073ffffffffffffffffffffffffffffffffffffffff168173ffffffffffffffffffffffffffffffffffffffff161415610bfe576040517f08c379a0000000000000000000000000000000000000000000000000000000008152600401610bf5906110b4565b60405180910390fd5b610c0781610c12565b50565b600033905090565b60008060009054906101000a900473ffffffffffffffffffffffffffffffffffffffff169050816000806101000a81548173ffffffffffffffffffffffffffffffffffffffff021916908373ffffffffffffffffffffffffffffffffffffffff1602179055508173ffffffffffffffffffffffffffffffffffffffff168173ffffffffffffffffffffffffffffffffffffffff167f8be0079c531659141344cd1fd0a4f28419497f9722a3daafe3b4186f6b6457e060405160405180910390a35050565b600081359050610ce581611284565b92915050565b600081359050610cfa8161129b565b92915050565b600081359050610d0f816112b2565b92915050565b600060208284031215610d2757600080fd5b6000610d3584828501610cd6565b91505092915050565b600080600060608486031215610d5357600080fd5b6000610d6186828701610cd6565b9350506020610d7286828701610d00565b9250506040610d8386828701610d00565b9150509250925092565b600060208284031215610d9f57600080fd5b6000610dad84828501610ceb565b91505092915050565b600060208284031215610dc857600080fd5b6000610dd684828501610d00565b91505092915050565b610de8816111a0565b82525050565b610df7816111b2565b82525050565b610e06816111e8565b82525050565b6000610e1960268361118f565b91507f4f776e61626c653a206e6577206f776e657220697320746865207a65726f206160008301527f64647265737300000000000000000000000000000000000000000000000000006020830152604082019050919050565b6000610e7f601d8361118f565b91507f6d696e696d756d2062726964676520616d6f756e74206e6f74206d65740000006000830152602082019050919050565b6000610ebf60128361118f565b91507f6272696467696e672069732070617573656400000000000000000000000000006000830152602082019050919050565b6000610eff601a8361118f565b91507f7472616e7366657220616c72656164792070726f6365737365640000000000006000830152602082019050919050565b6000610f3f60208361118f565b91507f4f776e61626c653a2063616c6c6572206973206e6f7420746865206f776e65726000830152602082019050919050565b6000610f7f60268361118f565b91507f796f75206861766520616c7265616479206272696467656420696e207468697360008301527f2065706f636800000000000000000000000000000000000000000000000000006020830152604082019050919050565b610fe1816111de565b82525050565b6000602082019050610ffc6000830184610ddf565b92915050565b600060a0820190506110176000830188610ddf565b6110246020830187610ddf565b6110316040830186610fd8565b61103e6060830185610fd8565b61104b6080830184610fd8565b9695505050505050565b600060408201905061106a6000830185610ddf565b6110776020830184610fd8565b9392505050565b60006020820190506110936000830184610dee565b92915050565b60006020820190506110ae6000830184610dfd565b92915050565b600060208201905081810360008301526110cd81610e0c565b9050919050565b600060208201905081810360008301526110ed81610e72565b9050919050565b6000602082019050818103600083015261110d81610eb2565b9050919050565b6000602082019050818103600083015261112d81610ef2565b9050919050565b6000602082019050818103600083015261114d81610f32565b9050919050565b6000602082019050818103600083015261116d81610f72565b9050919050565b60006020820190506111896000830184610fd8565b92915050565b600082825260208201905092915050565b60006111ab826111be565b9050919050565b60008115159050919050565b600073ffffffffffffffffffffffffffffffffffffffff82169050919050565b6000819050919050565b60006111f3826111fa565b9050919050565b6000611205826111be565b9050919050565b6000611217826111de565b91507fffffffffffffffffffffffffffffffffffffffffffffffffffffffffffffffff82141561124a57611249611255565b5b600182019050919050565b7f4e487b7100000000000000000000000000000000000000000000000000000000600052601160045260246000fd5b61128d816111a0565b811461129857600080fd5b50565b6112a4816111b2565b81146112af57600080fd5b50565b6112bb816111de565b81146112c657600080fd5b5056fea26469706673582212201926a8ab87aa37e78c9eb4fd7196abcab01bf2dc7b768c816cad7d29015cef8064736f6c63430008000033",
  "immutableReferences": {},
  "source": "// SPDX-License-Identifier: MIT\npragma solidity ^0.8.0;\n\nimport \"@openzeppelin/contracts/access/Ownable.sol\";\nimport \"./Istack.sol\";\n\ncontract BridgeAvax is Ownable {\n    \n  address nullAddress = 0x0000000000000000000000000000000000000000;\n  Istack public wSTACK;\n  uint public nonce;\n  uint public minimumBurn;\n  bool public paused;\n  mapping(uint => bool) public processedNonces;\n  mapping(address => bool) bridged;\n  address [] bridgers;\n  \n\n  enum Step { burn, mint }\n  event Transfer(\n    address from,\n    address to,\n    uint amount,\n    uint date,\n    uint nonce,\n    Step indexed step\n  );\n    \n\n  constructor (address _wstackAddress, uint _minimumBurn) {\n    wSTACK = Istack(_wstackAddress);\n    minimumBurn = _minimumBurn;\n    paused = true;\n  }\n\n  function burn(uint amount) external onlyNotBridged() {\n    require(!paused, 'bridging is paused');\n    require(amount >= minimumBurn, 'minimum bridge amount not met');\n    bridged[msg.sender] = true;\n    bridgers.push(msg.sender);\n    wSTACK.burn(msg.sender, amount);\n    emit Transfer(\n      msg.sender,\n      nullAddress,\n      amount,\n      block.timestamp,\n      nonce,\n      Step.burn\n      );\n    nonce++;\n  }\n\n  function mint(address to, uint amount, uint otherChainNonce) external onlyOwner{\n    require(processedNonces[otherChainNonce] == false, 'transfer already processed');\n    processedNonces[otherChainNonce] = true;\n    wSTACK.mint(to, amount);\n    emit Transfer(\n      msg.sender,\n      to,\n      amount,\n      block.timestamp,\n      otherChainNonce,\n      Step.mint\n    );\n  }\n\n  function setPause(bool _paused) external onlyOwner {\n    paused = _paused;\n  }\n\n  function setMinimumBurn(uint _minimumBurn) external onlyOwner {\n    minimumBurn = _minimumBurn;\n  }\n\n  function resetBridgeEpoch () external onlyOwner {\n    for (uint i=0; i< bridgers.length ; i++){\n      bridged[bridgers[i]] = false;\n    }\n  }\n\n  modifier onlyNotBridged () {\n    require(bridged[msg.sender] == false, 'you have already bridged in this epoch'); \n    _;\n  }\n}",
  "sourcePath": "/Users/emiliolanzalaco/Documents/solidityProjects/stackBridgeAvax/contracts/BridgeAvax.sol",
  "compiler": {
    "name": "solc",
    "version": "0.8.0+commit.c7dfd78e.Emscripten.clang"
  },
  "schemaVersion": "3.4.3",
  "updatedAt": "2021-12-05T00:56:45.452Z",
  "networkType": "ethereum",
  "devdoc": {
    "kind": "dev",
    "methods": {
      "owner()": {
        "details": "Returns the address of the current owner."
      },
      "renounceOwnership()": {
        "details": "Leaves the contract without owner. It will not be possible to call `onlyOwner` functions anymore. Can only be called by the current owner. NOTE: Renouncing ownership will leave the contract without an owner, thereby removing any functionality that is only available to the owner."
      },
      "transferOwnership(address)": {
        "details": "Transfers ownership of the contract to a new account (`newOwner`). Can only be called by the current owner."
      }
    },
    "version": 1
  },
  "userdoc": {
    "kind": "user",
    "methods": {},
    "version": 1
  }
}