{
  "contractName": "BridgeAvax",
  "abi": [
    {
      "inputs": [
        {
          "internalType": "address",
          "name": "_wstackAddress",
          "type": "address"
        },
        {
          "internalType": "uint256",
          "name": "_minimumBurn",
          "type": "uint256"
        }
      ],
      "stateMutability": "nonpayable",
      "type": "constructor"
    },
    {
      "anonymous": false,
      "inputs": [
        {
          "indexed": true,
          "internalType": "address",
          "name": "previousOwner",
          "type": "address"
        },
        {
          "indexed": true,
          "internalType": "address",
          "name": "newOwner",
          "type": "address"
        }
      ],
      "name": "OwnershipTransferred",
      "type": "event"
    },
    {
      "anonymous": false,
      "inputs": [
        {
          "indexed": false,
          "internalType": "address",
          "name": "from",
          "type": "address"
        },
        {
          "indexed": false,
          "internalType": "address",
          "name": "to",
          "type": "address"
        },
        {
          "indexed": false,
          "internalType": "uint256",
          "name": "amount",
          "type": "uint256"
        },
        {
          "indexed": false,
          "internalType": "uint256",
          "name": "date",
          "type": "uint256"
        },
        {
          "indexed": false,
          "internalType": "uint256",
          "name": "nonce",
          "type": "uint256"
        },
        {
          "indexed": true,
          "internalType": "enum BridgeAvax.Step",
          "name": "step",
          "type": "uint8"
        }
      ],
      "name": "Transfer",
      "type": "event"
    },
    {
      "inputs": [
        {
          "internalType": "address",
          "name": "",
          "type": "address"
        }
      ],
      "name": "bridged",
      "outputs": [
        {
          "internalType": "bool",
          "name": "",
          "type": "bool"
        }
      ],
      "stateMutability": "view",
      "type": "function",
      "constant": true
    },
    {
      "inputs": [
        {
          "internalType": "uint256",
          "name": "",
          "type": "uint256"
        }
      ],
      "name": "bridgers",
      "outputs": [
        {
          "internalType": "address",
          "name": "",
          "type": "address"
        }
      ],
      "stateMutability": "view",
      "type": "function",
      "constant": true
    },
    {
      "inputs": [],
      "name": "minimumBurn",
      "outputs": [
        {
          "internalType": "uint256",
          "name": "",
          "type": "uint256"
        }
      ],
      "stateMutability": "view",
      "type": "function",
      "constant": true
    },
    {
      "inputs": [],
      "name": "nonce",
      "outputs": [
        {
          "internalType": "uint256",
          "name": "",
          "type": "uint256"
        }
      ],
      "stateMutability": "view",
      "type": "function",
      "constant": true
    },
    {
      "inputs": [],
      "name": "owner",
      "outputs": [
        {
          "internalType": "address",
          "name": "",
          "type": "address"
        }
      ],
      "stateMutability": "view",
      "type": "function",
      "constant": true
    },
    {
      "inputs": [],
      "name": "paused",
      "outputs": [
        {
          "internalType": "bool",
          "name": "",
          "type": "bool"
        }
      ],
      "stateMutability": "view",
      "type": "function",
      "constant": true
    },
    {
      "inputs": [
        {
          "internalType": "uint256",
          "name": "",
          "type": "uint256"
        }
      ],
      "name": "processedNonces",
      "outputs": [
        {
          "internalType": "bool",
          "name": "",
          "type": "bool"
        }
      ],
      "stateMutability": "view",
      "type": "function",
      "constant": true
    },
    {
      "inputs": [],
      "name": "renounceOwnership",
      "outputs": [],
      "stateMutability": "nonpayable",
      "type": "function"
    },
    {
      "inputs": [
        {
          "internalType": "address",
          "name": "newOwner",
          "type": "address"
        }
      ],
      "name": "transferOwnership",
      "outputs": [],
      "stateMutability": "nonpayable",
      "type": "function"
    },
    {
      "inputs": [],
      "name": "wSTACK",
      "outputs": [
        {
          "internalType": "contract Istack",
          "name": "",
          "type": "address"
        }
      ],
      "stateMutability": "view",
      "type": "function",
      "constant": true
    },
    {
      "inputs": [
        {
          "internalType": "uint256",
          "name": "amount",
          "type": "uint256"
        }
      ],
      "name": "burn",
      "outputs": [],
      "stateMutability": "nonpayable",
      "type": "function"
    },
    {
      "inputs": [
        {
          "internalType": "address",
          "name": "to",
          "type": "address"
        },
        {
          "internalType": "uint256",
          "name": "amount",
          "type": "uint256"
        },
        {
          "internalType": "uint256",
          "name": "otherChainNonce",
          "type": "uint256"
        }
      ],
      "name": "mint",
      "outputs": [],
      "stateMutability": "nonpayable",
      "type": "function"
    },
    {
      "inputs": [
        {
          "internalType": "bool",
          "name": "_paused",
          "type": "bool"
        }
      ],
      "name": "setPause",
      "outputs": [],
      "stateMutability": "nonpayable",
      "type": "function"
    },
    {
      "inputs": [
        {
          "internalType": "uint256",
          "name": "_minimumBurn",
          "type": "uint256"
        }
      ],
      "name": "setMinimumBurn",
      "outputs": [],
      "stateMutability": "nonpayable",
      "type": "function"
    },
    {
      "inputs": [],
      "name": "resetBridgeEpoch",
      "outputs": [],
      "stateMutability": "nonpayable",
      "type": "function"
    }
  ],
  "bytecode": "0x60806040526000600160006101000a81548173ffffffffffffffffffffffffffffffffffffffff021916908373ffffffffffffffffffffffffffffffffffffffff1602179055503480156200005357600080fd5b50604051620016a5380380620016a58339818101604052810190620000799190620001fe565b620000996200008d6200010460201b60201c565b6200010c60201b60201c565b81600260006101000a81548173ffffffffffffffffffffffffffffffffffffffff021916908373ffffffffffffffffffffffffffffffffffffffff160217905550806004819055506001600560006101000a81548160ff0219169083151502179055505050620002b1565b600033905090565b60008060009054906101000a900473ffffffffffffffffffffffffffffffffffffffff169050816000806101000a81548173ffffffffffffffffffffffffffffffffffffffff021916908373ffffffffffffffffffffffffffffffffffffffff1602179055508173ffffffffffffffffffffffffffffffffffffffff168173ffffffffffffffffffffffffffffffffffffffff167f8be0079c531659141344cd1fd0a4f28419497f9722a3daafe3b4186f6b6457e060405160405180910390a35050565b600081519050620001e1816200027d565b92915050565b600081519050620001f88162000297565b92915050565b600080604083850312156200021257600080fd5b60006200022285828601620001d0565b92505060206200023585828601620001e7565b9150509250929050565b60006200024c8262000253565b9050919050565b600073ffffffffffffffffffffffffffffffffffffffff82169050919050565b6000819050919050565b62000288816200023f565b81146200029457600080fd5b50565b620002a28162000273565b8114620002ae57600080fd5b50565b6113e480620002c16000396000f3fe608060405234801561001057600080fd5b50600436106100f55760003560e01c806382d002d7116100975780639bb008d0116100665780639bb008d01461023a578063affed0e01461026a578063bedb86fb14610288578063f2fde38b146102a4576100f5565b806382d002d7146101a05780638da5cb5b146101bc57806391dae519146101da5780639ba3277a1461020a576100f5565b806347d2612d116100d357806347d2612d146101505780635c975abb1461016e5780636f1bd0921461018c578063715018a614610196576100f5565b8063156e29f6146100fa5780632554a4a41461011657806342966c6814610134575b600080fd5b610114600480360381019061010f9190610e23565b6102c0565b005b61011e6104db565b60405161012b9190611259565b60405180910390f35b61014e60048036038101906101499190610e9b565b6104e1565b005b61015861080b565b604051610165919061117e565b60405180910390f35b610176610831565b6040516101839190611163565b60405180910390f35b610194610844565b005b61019e6109a2565b005b6101ba60048036038101906101b59190610e9b565b610a2a565b005b6101c4610ab0565b6040516101d191906110cc565b60405180910390f35b6101f460048036038101906101ef9190610e9b565b610ad9565b6040516102019190611163565b60405180910390f35b610224600480360381019061021f9190610dfa565b610af9565b6040516102319190611163565b60405180910390f35b610254600480360381019061024f9190610e9b565b610b19565b60405161026191906110cc565b60405180910390f35b610272610b58565b60405161027f9190611259565b60405180910390f35b6102a2600480360381019061029d9190610e72565b610b5e565b005b6102be60048036038101906102b99190610dfa565b610bf7565b005b6102c8610cef565b73ffffffffffffffffffffffffffffffffffffffff166102e6610ab0565b73ffffffffffffffffffffffffffffffffffffffff161461033c576040517f08c379a000000000000000000000000000000000000000000000000000000000815260040161033390611219565b60405180910390fd5b600015156006600083815260200190815260200160002060009054906101000a900460ff161515146103a3576040517f08c379a000000000000000000000000000000000000000000000000000000000815260040161039a906111f9565b60405180910390fd5b60016006600083815260200190815260200160002060006101000a81548160ff021916908315150217905550600260009054906101000a900473ffffffffffffffffffffffffffffffffffffffff1673ffffffffffffffffffffffffffffffffffffffff166340c10f1984846040518363ffffffff1660e01b815260040161042c92919061113a565b600060405180830381600087803b15801561044657600080fd5b505af115801561045a573d6000803e3d6000fd5b50505050600180811115610497577f4e487b7100000000000000000000000000000000000000000000000000000000600052602160045260246000fd5b7f27757542a5e1b9e8cef80f584e094d4eb63b9802f355c61b3640b71b618d5c8e33858542866040516104ce9594939291906110e7565b60405180910390a2505050565b60045481565b60001515600760003373ffffffffffffffffffffffffffffffffffffffff1673ffffffffffffffffffffffffffffffffffffffff16815260200190815260200160002060009054906101000a900460ff16151514610574576040517f08c379a000000000000000000000000000000000000000000000000000000000815260040161056b90611239565b60405180910390fd5b600560009054906101000a900460ff16156105c4576040517f08c379a00000000000000000000000000000000000000000000000000000000081526004016105bb906111d9565b60405180910390fd5b600454811015610609576040517f08c379a0000000000000000000000000000000000000000000000000000000008152600401610600906111b9565b60405180910390fd5b6001600760003373ffffffffffffffffffffffffffffffffffffffff1673ffffffffffffffffffffffffffffffffffffffff16815260200190815260200160002060006101000a81548160ff0219169083151502179055506008339080600181540180825580915050600190039060005260206000200160009091909190916101000a81548173ffffffffffffffffffffffffffffffffffffffff021916908373ffffffffffffffffffffffffffffffffffffffff160217905550600260009054906101000a900473ffffffffffffffffffffffffffffffffffffffff1673ffffffffffffffffffffffffffffffffffffffff16639dc29fac33836040518363ffffffff1660e01b815260040161072192919061113a565b600060405180830381600087803b15801561073b57600080fd5b505af115801561074f573d6000803e3d6000fd5b505050506000600181111561078d577f4e487b7100000000000000000000000000000000000000000000000000000000600052602160045260246000fd5b7f27757542a5e1b9e8cef80f584e094d4eb63b9802f355c61b3640b71b618d5c8e33600160009054906101000a900473ffffffffffffffffffffffffffffffffffffffff1684426003546040516107e89594939291906110e7565b60405180910390a260036000815480929190610803906112f1565b919050555050565b600260009054906101000a900473ffffffffffffffffffffffffffffffffffffffff1681565b600560009054906101000a900460ff1681565b61084c610cef565b73ffffffffffffffffffffffffffffffffffffffff1661086a610ab0565b73ffffffffffffffffffffffffffffffffffffffff16146108c0576040517f08c379a00000000000000000000000000000000000000000000000000000000081526004016108b790611219565b60405180910390fd5b60005b60088054905081101561099f5760006007600060088481548110610910577f4e487b7100000000000000000000000000000000000000000000000000000000600052603260045260246000fd5b9060005260206000200160009054906101000a900473ffffffffffffffffffffffffffffffffffffffff1673ffffffffffffffffffffffffffffffffffffffff1673ffffffffffffffffffffffffffffffffffffffff16815260200190815260200160002060006101000a81548160ff0219169083151502179055508080610997906112f1565b9150506108c3565b50565b6109aa610cef565b73ffffffffffffffffffffffffffffffffffffffff166109c8610ab0565b73ffffffffffffffffffffffffffffffffffffffff1614610a1e576040517f08c379a0000000000000000000000000000000000000000000000000000000008152600401610a1590611219565b60405180910390fd5b610a286000610cf7565b565b610a32610cef565b73ffffffffffffffffffffffffffffffffffffffff16610a50610ab0565b73ffffffffffffffffffffffffffffffffffffffff1614610aa6576040517f08c379a0000000000000000000000000000000000000000000000000000000008152600401610a9d90611219565b60405180910390fd5b8060048190555050565b60008060009054906101000a900473ffffffffffffffffffffffffffffffffffffffff16905090565b60066020528060005260406000206000915054906101000a900460ff1681565b60076020528060005260406000206000915054906101000a900460ff1681565b60088181548110610b2957600080fd5b906000526020600020016000915054906101000a900473ffffffffffffffffffffffffffffffffffffffff1681565b60035481565b610b66610cef565b73ffffffffffffffffffffffffffffffffffffffff16610b84610ab0565b73ffffffffffffffffffffffffffffffffffffffff1614610bda576040517f08c379a0000000000000000000000000000000000000000000000000000000008152600401610bd190611219565b60405180910390fd5b80600560006101000a81548160ff02191690831515021790555050565b610bff610cef565b73ffffffffffffffffffffffffffffffffffffffff16610c1d610ab0565b73ffffffffffffffffffffffffffffffffffffffff1614610c73576040517f08c379a0000000000000000000000000000000000000000000000000000000008152600401610c6a90611219565b60405180910390fd5b600073ffffffffffffffffffffffffffffffffffffffff168173ffffffffffffffffffffffffffffffffffffffff161415610ce3576040517f08c379a0000000000000000000000000000000000000000000000000000000008152600401610cda90611199565b60405180910390fd5b610cec81610cf7565b50565b600033905090565b60008060009054906101000a900473ffffffffffffffffffffffffffffffffffffffff169050816000806101000a81548173ffffffffffffffffffffffffffffffffffffffff021916908373ffffffffffffffffffffffffffffffffffffffff1602179055508173ffffffffffffffffffffffffffffffffffffffff168173ffffffffffffffffffffffffffffffffffffffff167f8be0079c531659141344cd1fd0a4f28419497f9722a3daafe3b4186f6b6457e060405160405180910390a35050565b600081359050610dca81611369565b92915050565b600081359050610ddf81611380565b92915050565b600081359050610df481611397565b92915050565b600060208284031215610e0c57600080fd5b6000610e1a84828501610dbb565b91505092915050565b600080600060608486031215610e3857600080fd5b6000610e4686828701610dbb565b9350506020610e5786828701610de5565b9250506040610e6886828701610de5565b9150509250925092565b600060208284031215610e8457600080fd5b6000610e9284828501610dd0565b91505092915050565b600060208284031215610ead57600080fd5b6000610ebb84828501610de5565b91505092915050565b610ecd81611285565b82525050565b610edc81611297565b82525050565b610eeb816112cd565b82525050565b6000610efe602683611274565b91507f4f776e61626c653a206e6577206f776e657220697320746865207a65726f206160008301527f64647265737300000000000000000000000000000000000000000000000000006020830152604082019050919050565b6000610f64601d83611274565b91507f6d696e696d756d2062726964676520616d6f756e74206e6f74206d65740000006000830152602082019050919050565b6000610fa4601283611274565b91507f6272696467696e672069732070617573656400000000000000000000000000006000830152602082019050919050565b6000610fe4601a83611274565b91507f7472616e7366657220616c72656164792070726f6365737365640000000000006000830152602082019050919050565b6000611024602083611274565b91507f4f776e61626c653a2063616c6c6572206973206e6f7420746865206f776e65726000830152602082019050919050565b6000611064602683611274565b91507f796f75206861766520616c7265616479206272696467656420696e207468697360008301527f2065706f636800000000000000000000000000000000000000000000000000006020830152604082019050919050565b6110c6816112c3565b82525050565b60006020820190506110e16000830184610ec4565b92915050565b600060a0820190506110fc6000830188610ec4565b6111096020830187610ec4565b61111660408301866110bd565b61112360608301856110bd565b61113060808301846110bd565b9695505050505050565b600060408201905061114f6000830185610ec4565b61115c60208301846110bd565b9392505050565b60006020820190506111786000830184610ed3565b92915050565b60006020820190506111936000830184610ee2565b92915050565b600060208201905081810360008301526111b281610ef1565b9050919050565b600060208201905081810360008301526111d281610f57565b9050919050565b600060208201905081810360008301526111f281610f97565b9050919050565b6000602082019050818103600083015261121281610fd7565b9050919050565b6000602082019050818103600083015261123281611017565b9050919050565b6000602082019050818103600083015261125281611057565b9050919050565b600060208201905061126e60008301846110bd565b92915050565b600082825260208201905092915050565b6000611290826112a3565b9050919050565b60008115159050919050565b600073ffffffffffffffffffffffffffffffffffffffff82169050919050565b6000819050919050565b60006112d8826112df565b9050919050565b60006112ea826112a3565b9050919050565b60006112fc826112c3565b91507fffffffffffffffffffffffffffffffffffffffffffffffffffffffffffffffff82141561132f5761132e61133a565b5b600182019050919050565b7f4e487b7100000000000000000000000000000000000000000000000000000000600052601160045260246000fd5b61137281611285565b811461137d57600080fd5b50565b61138981611297565b811461139457600080fd5b50565b6113a0816112c3565b81146113ab57600080fd5b5056fea26469706673582212205ea2985f4861191305054af34b808567ffbbc7768317cdf975d32e9b0e2f8f5f64736f6c63430008000033",
  "immutableReferences": {},
  "source": "// SPDX-License-Identifier: MIT\npragma solidity ^0.8.0;\n\nimport \"@openzeppelin/contracts/access/Ownable.sol\";\nimport \"./Istack.sol\";\n\ncontract BridgeAvax is Ownable {\n    \n  address nullAddress = 0x0000000000000000000000000000000000000000;\n  Istack public wSTACK;\n  uint public nonce;\n  uint public minimumBurn;\n  bool public paused;\n  mapping(uint => bool) public processedNonces;\n  mapping(address => bool) public bridged;\n  address [] public bridgers;\n  \n\n  enum Step { burn, mint }\n  event Transfer(\n    address from,\n    address to,\n    uint amount,\n    uint date,\n    uint nonce,\n    Step indexed step\n  );\n    \n\n  constructor (address _wstackAddress, uint _minimumBurn) {\n    wSTACK = Istack(_wstackAddress);\n    minimumBurn = _minimumBurn;\n    paused = true;\n  }\n\n  function burn(uint amount) external onlyNotBridged() {\n    require(!paused, 'bridging is paused');\n    require(amount >= minimumBurn, 'minimum bridge amount not met');\n    bridged[msg.sender] = true;\n    bridgers.push(msg.sender);\n    wSTACK.burn(msg.sender, amount);\n    emit Transfer(\n      msg.sender,\n      nullAddress,\n      amount,\n      block.timestamp,\n      nonce,\n      Step.burn\n      );\n    nonce++;\n  }\n\n  function mint(address to, uint amount, uint otherChainNonce) external onlyOwner{\n    require(processedNonces[otherChainNonce] == false, 'transfer already processed');\n    processedNonces[otherChainNonce] = true;\n    wSTACK.mint(to, amount);\n    emit Transfer(\n      msg.sender,\n      to,\n      amount,\n      block.timestamp,\n      otherChainNonce,\n      Step.mint\n    );\n  }\n\n  function setPause(bool _paused) external onlyOwner {\n    paused = _paused;\n  }\n\n  function setMinimumBurn(uint _minimumBurn) external onlyOwner {\n    minimumBurn = _minimumBurn;\n  }\n\n  function resetBridgeEpoch () external onlyOwner {\n    for (uint i=0; i< bridgers.length ; i++){\n      bridged[bridgers[i]] = false;\n    }\n  }\n\n  modifier onlyNotBridged () {\n    require(bridged[msg.sender] == false, 'you have already bridged in this epoch'); \n    _;\n  }\n}",
  "sourcePath": "/Users/emiliolanzalaco/Documents/solidityProjects/stackBridgeAvax/contracts/BridgeAvax.sol",
  "compiler": {
    "name": "solc",
    "version": "0.8.0+commit.c7dfd78e.Emscripten.clang"
  },
  "schemaVersion": "3.4.3",
  "updatedAt": "2021-12-05T11:01:59.309Z",
  "networkType": "ethereum",
  "devdoc": {
    "kind": "dev",
    "methods": {
      "owner()": {
        "details": "Returns the address of the current owner."
      },
      "renounceOwnership()": {
        "details": "Leaves the contract without owner. It will not be possible to call `onlyOwner` functions anymore. Can only be called by the current owner. NOTE: Renouncing ownership will leave the contract without an owner, thereby removing any functionality that is only available to the owner."
      },
      "transferOwnership(address)": {
        "details": "Transfers ownership of the contract to a new account (`newOwner`). Can only be called by the current owner."
      }
    },
    "version": 1
  },
  "userdoc": {
    "kind": "user",
    "methods": {},
    "version": 1
  }
}