{
  "contractName": "BridgeEth",
  "abi": [
    {
      "inputs": [
        {
          "internalType": "address",
          "name": "_stackAddress",
          "type": "address"
        }
      ],
      "stateMutability": "nonpayable",
      "type": "constructor"
    },
    {
      "anonymous": false,
      "inputs": [
        {
          "indexed": true,
          "internalType": "address",
          "name": "previousOwner",
          "type": "address"
        },
        {
          "indexed": true,
          "internalType": "address",
          "name": "newOwner",
          "type": "address"
        }
      ],
      "name": "OwnershipTransferred",
      "type": "event"
    },
    {
      "anonymous": false,
      "inputs": [
        {
          "indexed": false,
          "internalType": "address",
          "name": "from",
          "type": "address"
        },
        {
          "indexed": false,
          "internalType": "address",
          "name": "to",
          "type": "address"
        },
        {
          "indexed": false,
          "internalType": "uint256",
          "name": "amount",
          "type": "uint256"
        },
        {
          "indexed": false,
          "internalType": "uint256",
          "name": "date",
          "type": "uint256"
        },
        {
          "indexed": false,
          "internalType": "uint256",
          "name": "nonce",
          "type": "uint256"
        },
        {
          "indexed": true,
          "internalType": "enum BridgeEth.Step",
          "name": "step",
          "type": "uint8"
        }
      ],
      "name": "Transfer",
      "type": "event"
    },
    {
      "inputs": [
        {
          "internalType": "address",
          "name": "",
          "type": "address"
        }
      ],
      "name": "bridged",
      "outputs": [
        {
          "internalType": "bool",
          "name": "",
          "type": "bool"
        }
      ],
      "stateMutability": "view",
      "type": "function",
      "constant": true
    },
    {
      "inputs": [],
      "name": "minimumDeposit",
      "outputs": [
        {
          "internalType": "uint256",
          "name": "",
          "type": "uint256"
        }
      ],
      "stateMutability": "view",
      "type": "function",
      "constant": true
    },
    {
      "inputs": [],
      "name": "nonce",
      "outputs": [
        {
          "internalType": "uint256",
          "name": "",
          "type": "uint256"
        }
      ],
      "stateMutability": "view",
      "type": "function",
      "constant": true
    },
    {
      "inputs": [],
      "name": "owner",
      "outputs": [
        {
          "internalType": "address",
          "name": "",
          "type": "address"
        }
      ],
      "stateMutability": "view",
      "type": "function",
      "constant": true
    },
    {
      "inputs": [],
      "name": "paused",
      "outputs": [
        {
          "internalType": "bool",
          "name": "",
          "type": "bool"
        }
      ],
      "stateMutability": "view",
      "type": "function",
      "constant": true
    },
    {
      "inputs": [
        {
          "internalType": "uint256",
          "name": "",
          "type": "uint256"
        }
      ],
      "name": "processedNonces",
      "outputs": [
        {
          "internalType": "bool",
          "name": "",
          "type": "bool"
        }
      ],
      "stateMutability": "view",
      "type": "function",
      "constant": true
    },
    {
      "inputs": [],
      "name": "renounceOwnership",
      "outputs": [],
      "stateMutability": "nonpayable",
      "type": "function"
    },
    {
      "inputs": [],
      "name": "stackAddress",
      "outputs": [
        {
          "internalType": "contract IERC20",
          "name": "",
          "type": "address"
        }
      ],
      "stateMutability": "view",
      "type": "function",
      "constant": true
    },
    {
      "inputs": [
        {
          "internalType": "address",
          "name": "newOwner",
          "type": "address"
        }
      ],
      "name": "transferOwnership",
      "outputs": [],
      "stateMutability": "nonpayable",
      "type": "function"
    },
    {
      "inputs": [
        {
          "internalType": "uint256",
          "name": "amount",
          "type": "uint256"
        }
      ],
      "name": "deposit",
      "outputs": [],
      "stateMutability": "nonpayable",
      "type": "function"
    },
    {
      "inputs": [
        {
          "internalType": "address",
          "name": "to",
          "type": "address"
        },
        {
          "internalType": "uint256",
          "name": "amount",
          "type": "uint256"
        },
        {
          "internalType": "uint256",
          "name": "otherChainNonce",
          "type": "uint256"
        }
      ],
      "name": "withdraw",
      "outputs": [],
      "stateMutability": "nonpayable",
      "type": "function"
    },
    {
      "inputs": [
        {
          "internalType": "uint256",
          "name": "_minimumDeposit",
          "type": "uint256"
        }
      ],
      "name": "setMinimumBurn",
      "outputs": [],
      "stateMutability": "nonpayable",
      "type": "function"
    },
    {
      "inputs": [
        {
          "internalType": "bool",
          "name": "_paused",
          "type": "bool"
        }
      ],
      "name": "setPause",
      "outputs": [],
      "stateMutability": "nonpayable",
      "type": "function"
    }
  ],
  "bytecode": "0x60806040523480156200001157600080fd5b50604051620012d7380380620012d783398181016040528101906200003791906200019d565b620000576200004b620000ba60201b60201c565b620000c260201b60201c565b80600160006101000a81548173ffffffffffffffffffffffffffffffffffffffff021916908373ffffffffffffffffffffffffffffffffffffffff1602179055506000600660006101000a81548160ff0219169083151502179055505062000217565b600033905090565b60008060009054906101000a900473ffffffffffffffffffffffffffffffffffffffff169050816000806101000a81548173ffffffffffffffffffffffffffffffffffffffff021916908373ffffffffffffffffffffffffffffffffffffffff1602179055508173ffffffffffffffffffffffffffffffffffffffff168173ffffffffffffffffffffffffffffffffffffffff167f8be0079c531659141344cd1fd0a4f28419497f9722a3daafe3b4186f6b6457e060405160405180910390a35050565b6000815190506200019781620001fd565b92915050565b600060208284031215620001b057600080fd5b6000620001c08482850162000186565b91505092915050565b6000620001d682620001dd565b9050919050565b600073ffffffffffffffffffffffffffffffffffffffff82169050919050565b6200020881620001c9565b81146200021457600080fd5b50565b6110b080620002276000396000f3fe608060405234801561001057600080fd5b50600436106100cf5760003560e01c80639ba3277a1161008c578063b6b55f2511610066578063b6b55f25146101ee578063bedb86fb1461020a578063f2fde38b14610226578063f640238c14610242576100cf565b80639ba3277a14610184578063affed0e0146101b4578063b5c5f672146101d2576100cf565b80635c975abb146100d4578063636bfbab146100f2578063715018a61461011057806382d002d71461011a5780638da5cb5b1461013657806391dae51914610154575b600080fd5b6100dc610260565b6040516100e99190610e4f565b60405180910390f35b6100fa610273565b6040516101079190610f25565b60405180910390f35b610118610279565b005b610134600480360381019061012f9190610bb6565b610301565b005b61013e610387565b60405161014b9190610d81565b60405180910390f35b61016e60048036038101906101699190610bb6565b6103b0565b60405161017b9190610e4f565b60405180910390f35b61019e60048036038101906101999190610aec565b6103d0565b6040516101ab9190610e4f565b60405180910390f35b6101bc6103f0565b6040516101c99190610f25565b60405180910390f35b6101ec60048036038101906101e79190610b15565b6103f6565b005b61020860048036038101906102039190610bb6565b610632565b005b610224600480360381019061021f9190610b64565b610815565b005b610240600480360381019061023b9190610aec565b6108ae565b005b61024a6109a6565b6040516102579190610e6a565b60405180910390f35b600660009054906101000a900460ff1681565b60035481565b6102816109cc565b73ffffffffffffffffffffffffffffffffffffffff1661029f610387565b73ffffffffffffffffffffffffffffffffffffffff16146102f5576040517f08c379a00000000000000000000000000000000000000000000000000000000081526004016102ec90610ee5565b60405180910390fd5b6102ff60006109d4565b565b6103096109cc565b73ffffffffffffffffffffffffffffffffffffffff16610327610387565b73ffffffffffffffffffffffffffffffffffffffff161461037d576040517f08c379a000000000000000000000000000000000000000000000000000000000815260040161037490610ee5565b60405180910390fd5b8060038190555050565b60008060009054906101000a900473ffffffffffffffffffffffffffffffffffffffff16905090565b60056020528060005260406000206000915054906101000a900460ff1681565b60046020528060005260406000206000915054906101000a900460ff1681565b60025481565b6103fe6109cc565b73ffffffffffffffffffffffffffffffffffffffff1661041c610387565b73ffffffffffffffffffffffffffffffffffffffff1614610472576040517f08c379a000000000000000000000000000000000000000000000000000000000815260040161046990610ee5565b60405180910390fd5b600015156005600083815260200190815260200160002060009054906101000a900460ff161515146104d9576040517f08c379a00000000000000000000000000000000000000000000000000000000081526004016104d090610ec5565b60405180910390fd5b60016005600083815260200190815260200160002060006101000a81548160ff021916908315150217905550600160009054906101000a900473ffffffffffffffffffffffffffffffffffffffff1673ffffffffffffffffffffffffffffffffffffffff1663a9059cbb84846040518363ffffffff1660e01b8152600401610562929190610e26565b602060405180830381600087803b15801561057c57600080fd5b505af1158015610590573d6000803e3d6000fd5b505050506040513d601f19601f820116820180604052508101906105b49190610b8d565b506001808111156105ee577f4e487b7100000000000000000000000000000000000000000000000000000000600052602160045260246000fd5b7f27757542a5e1b9e8cef80f584e094d4eb63b9802f355c61b3640b71b618d5c8e3385854286604051610625959493929190610dd3565b60405180910390a2505050565b60001515600660009054906101000a900460ff16151514610688576040517f08c379a000000000000000000000000000000000000000000000000000000000815260040161067f90610ea5565b60405180910390fd5b6003548110156106cd576040517f08c379a00000000000000000000000000000000000000000000000000000000081526004016106c490610f05565b60405180910390fd5b600160009054906101000a900473ffffffffffffffffffffffffffffffffffffffff1673ffffffffffffffffffffffffffffffffffffffff166323b872dd3330846040518463ffffffff1660e01b815260040161072c93929190610d9c565b602060405180830381600087803b15801561074657600080fd5b505af115801561075a573d6000803e3d6000fd5b505050506040513d601f19601f8201168201806040525081019061077e9190610b8d565b50600060018111156107b9577f4e487b7100000000000000000000000000000000000000000000000000000000600052602160045260246000fd5b7f27757542a5e1b9e8cef80f584e094d4eb63b9802f355c61b3640b71b618d5c8e333084426002546040516107f2959493929190610dd3565b60405180910390a26002600081548092919061080d90610fbd565b919050555050565b61081d6109cc565b73ffffffffffffffffffffffffffffffffffffffff1661083b610387565b73ffffffffffffffffffffffffffffffffffffffff1614610891576040517f08c379a000000000000000000000000000000000000000000000000000000000815260040161088890610ee5565b60405180910390fd5b80600660006101000a81548160ff02191690831515021790555050565b6108b66109cc565b73ffffffffffffffffffffffffffffffffffffffff166108d4610387565b73ffffffffffffffffffffffffffffffffffffffff161461092a576040517f08c379a000000000000000000000000000000000000000000000000000000000815260040161092190610ee5565b60405180910390fd5b600073ffffffffffffffffffffffffffffffffffffffff168173ffffffffffffffffffffffffffffffffffffffff16141561099a576040517f08c379a000000000000000000000000000000000000000000000000000000000815260040161099190610e85565b60405180910390fd5b6109a3816109d4565b50565b600160009054906101000a900473ffffffffffffffffffffffffffffffffffffffff1681565b600033905090565b60008060009054906101000a900473ffffffffffffffffffffffffffffffffffffffff169050816000806101000a81548173ffffffffffffffffffffffffffffffffffffffff021916908373ffffffffffffffffffffffffffffffffffffffff1602179055508173ffffffffffffffffffffffffffffffffffffffff168173ffffffffffffffffffffffffffffffffffffffff167f8be0079c531659141344cd1fd0a4f28419497f9722a3daafe3b4186f6b6457e060405160405180910390a35050565b600081359050610aa781611035565b92915050565b600081359050610abc8161104c565b92915050565b600081519050610ad18161104c565b92915050565b600081359050610ae681611063565b92915050565b600060208284031215610afe57600080fd5b6000610b0c84828501610a98565b91505092915050565b600080600060608486031215610b2a57600080fd5b6000610b3886828701610a98565b9350506020610b4986828701610ad7565b9250506040610b5a86828701610ad7565b9150509250925092565b600060208284031215610b7657600080fd5b6000610b8484828501610aad565b91505092915050565b600060208284031215610b9f57600080fd5b6000610bad84828501610ac2565b91505092915050565b600060208284031215610bc857600080fd5b6000610bd684828501610ad7565b91505092915050565b610be881610f51565b82525050565b610bf781610f63565b82525050565b610c0681610f99565b82525050565b6000610c19602683610f40565b91507f4f776e61626c653a206e6577206f776e657220697320746865207a65726f206160008301527f64647265737300000000000000000000000000000000000000000000000000006020830152604082019050919050565b6000610c7f601283610f40565b91507f6272696467696e672069732070617573656400000000000000000000000000006000830152602082019050919050565b6000610cbf601a83610f40565b91507f7472616e7366657220616c72656164792070726f6365737365640000000000006000830152602082019050919050565b6000610cff602083610f40565b91507f4f776e61626c653a2063616c6c6572206973206e6f7420746865206f776e65726000830152602082019050919050565b6000610d3f601b83610f40565b91507f6d696e696d756d206465706f736974206e6f74207265616368656400000000006000830152602082019050919050565b610d7b81610f8f565b82525050565b6000602082019050610d966000830184610bdf565b92915050565b6000606082019050610db16000830186610bdf565b610dbe6020830185610bdf565b610dcb6040830184610d72565b949350505050565b600060a082019050610de86000830188610bdf565b610df56020830187610bdf565b610e026040830186610d72565b610e0f6060830185610d72565b610e1c6080830184610d72565b9695505050505050565b6000604082019050610e3b6000830185610bdf565b610e486020830184610d72565b9392505050565b6000602082019050610e646000830184610bee565b92915050565b6000602082019050610e7f6000830184610bfd565b92915050565b60006020820190508181036000830152610e9e81610c0c565b9050919050565b60006020820190508181036000830152610ebe81610c72565b9050919050565b60006020820190508181036000830152610ede81610cb2565b9050919050565b60006020820190508181036000830152610efe81610cf2565b9050919050565b60006020820190508181036000830152610f1e81610d32565b9050919050565b6000602082019050610f3a6000830184610d72565b92915050565b600082825260208201905092915050565b6000610f5c82610f6f565b9050919050565b60008115159050919050565b600073ffffffffffffffffffffffffffffffffffffffff82169050919050565b6000819050919050565b6000610fa482610fab565b9050919050565b6000610fb682610f6f565b9050919050565b6000610fc882610f8f565b91507fffffffffffffffffffffffffffffffffffffffffffffffffffffffffffffffff821415610ffb57610ffa611006565b5b600182019050919050565b7f4e487b7100000000000000000000000000000000000000000000000000000000600052601160045260246000fd5b61103e81610f51565b811461104957600080fd5b50565b61105581610f63565b811461106057600080fd5b50565b61106c81610f8f565b811461107757600080fd5b5056fea2646970667358221220057a66329b593e2994094b153bfe77fdc6bcdc7e8bdf233298c21078191e175b64736f6c63430008000033",
  "immutableReferences": {},
  "source": "// SPDX-License-Identifier: MIT\npragma solidity ^0.8.0;\n\nimport \"@openzeppelin/contracts/access/Ownable.sol\";\nimport \"@openzeppelin/contracts/token/ERC20/IERC20.sol\";\n\ncontract BridgeEth is Ownable {\n    \n    IERC20 public stackAddress;\n    uint public nonce;\n    uint public minimumDeposit;\n    mapping(address => bool) public bridged;\n    mapping(uint => bool) public processedNonces;\n    bool public paused;\n    \n   \n    enum Step { Deposit, Withdraw }\n    event Transfer(\n        address from,\n        address to,\n        uint amount,\n        uint date,\n        uint nonce,\n        Step indexed step\n    );\n\n    constructor (address _stackAddress) {\n        stackAddress = IERC20(_stackAddress);\n        paused = false;\n    }\n\n    function deposit (uint amount) external {\n        require(paused == false, 'bridging is paused');\n        require(amount >= minimumDeposit, 'minimum deposit not reached');\n        stackAddress.transferFrom(msg.sender, address(this), amount);\n        emit Transfer(\n            msg.sender,\n            address(this),\n            amount,\n            block.timestamp,\n            nonce,\n            Step.Deposit\n        );\n        nonce++;\n    }\n    \n    function withdraw (address to, uint amount, uint otherChainNonce) external onlyOwner {\n        require(processedNonces[otherChainNonce] == false, 'transfer already processed');\n        processedNonces[otherChainNonce] = true;\n        stackAddress.transfer(to, amount);\n        emit Transfer(\n            msg.sender,\n            to,\n            amount,\n            block.timestamp,\n            otherChainNonce,\n            Step.Withdraw\n        );\n    }\n\n    function setMinimumBurn(uint _minimumDeposit) external onlyOwner {\n        minimumDeposit = _minimumDeposit;\n    }\n\n    function setPause(bool _paused) external onlyOwner {\n        paused = _paused;\n  }\n\n}\n\n",
  "sourcePath": "/Users/emiliolanzalaco/Documents/solidityProjects/stackBridgeAvax/contracts/BridgeEth.sol",
  "compiler": {
    "name": "solc",
    "version": "0.8.0+commit.c7dfd78e.Emscripten.clang"
  },
  "schemaVersion": "3.4.3",
  "updatedAt": "2021-12-05T00:56:45.446Z",
  "networkType": "ethereum",
  "devdoc": {
    "kind": "dev",
    "methods": {
      "owner()": {
        "details": "Returns the address of the current owner."
      },
      "renounceOwnership()": {
        "details": "Leaves the contract without owner. It will not be possible to call `onlyOwner` functions anymore. Can only be called by the current owner. NOTE: Renouncing ownership will leave the contract without an owner, thereby removing any functionality that is only available to the owner."
      },
      "transferOwnership(address)": {
        "details": "Transfers ownership of the contract to a new account (`newOwner`). Can only be called by the current owner."
      }
    },
    "version": 1
  },
  "userdoc": {
    "kind": "user",
    "methods": {},
    "version": 1
  }
}